{
  "_format": "hh-sol-artifact-1",
  "contractName": "MyEpicGame",
  "sourceName": "contracts/MyEpicGame.sol",
  "abi": [
    {
      "inputs": [
        {
          "internalType": "string[]",
          "name": "characterNames",
          "type": "string[]"
        },
        {
          "internalType": "string[]",
          "name": "characterImageURIs",
          "type": "string[]"
        },
        {
          "internalType": "uint256[]",
          "name": "characterHp",
          "type": "uint256[]"
        },
        {
          "internalType": "uint256[]",
          "name": "characterAttackDmg",
          "type": "uint256[]"
        },
        {
          "internalType": "string",
          "name": "bossName",
          "type": "string"
        },
        {
          "internalType": "string",
          "name": "bossImageURI",
          "type": "string"
        },
        {
          "internalType": "uint256",
          "name": "bossHp",
          "type": "uint256"
        },
        {
          "internalType": "uint256",
          "name": "bossAttackDamage",
          "type": "uint256"
        }
      ],
      "stateMutability": "nonpayable",
      "type": "constructor"
    },
    {
      "anonymous": false,
      "inputs": [
        {
          "indexed": true,
          "internalType": "address",
          "name": "owner",
          "type": "address"
        },
        {
          "indexed": true,
          "internalType": "address",
          "name": "approved",
          "type": "address"
        },
        {
          "indexed": true,
          "internalType": "uint256",
          "name": "tokenId",
          "type": "uint256"
        }
      ],
      "name": "Approval",
      "type": "event"
    },
    {
      "anonymous": false,
      "inputs": [
        {
          "indexed": true,
          "internalType": "address",
          "name": "owner",
          "type": "address"
        },
        {
          "indexed": true,
          "internalType": "address",
          "name": "operator",
          "type": "address"
        },
        {
          "indexed": false,
          "internalType": "bool",
          "name": "approved",
          "type": "bool"
        }
      ],
      "name": "ApprovalForAll",
      "type": "event"
    },
    {
      "anonymous": false,
      "inputs": [
        {
          "indexed": false,
          "internalType": "uint256",
          "name": "newBossHp",
          "type": "uint256"
        },
        {
          "indexed": false,
          "internalType": "uint256",
          "name": "newPlayerHp",
          "type": "uint256"
        }
      ],
      "name": "AttackComplete",
      "type": "event"
    },
    {
      "anonymous": false,
      "inputs": [
        {
          "indexed": false,
          "internalType": "address",
          "name": "sender",
          "type": "address"
        },
        {
          "indexed": false,
          "internalType": "uint256",
          "name": "tokenId",
          "type": "uint256"
        },
        {
          "indexed": false,
          "internalType": "uint256",
          "name": "characterIndex",
          "type": "uint256"
        }
      ],
      "name": "CharacterNFTMinted",
      "type": "event"
    },
    {
      "anonymous": false,
      "inputs": [
        {
          "indexed": false,
          "internalType": "uint256",
          "name": "newBossHp",
          "type": "uint256"
        }
      ],
      "name": "ReviveBossComplete",
      "type": "event"
    },
    {
      "anonymous": false,
      "inputs": [
        {
          "indexed": true,
          "internalType": "address",
          "name": "from",
          "type": "address"
        },
        {
          "indexed": true,
          "internalType": "address",
          "name": "to",
          "type": "address"
        },
        {
          "indexed": true,
          "internalType": "uint256",
          "name": "tokenId",
          "type": "uint256"
        }
      ],
      "name": "Transfer",
      "type": "event"
    },
    {
      "inputs": [
        {
          "internalType": "address",
          "name": "to",
          "type": "address"
        },
        {
          "internalType": "uint256",
          "name": "tokenId",
          "type": "uint256"
        }
      ],
      "name": "approve",
      "outputs": [],
      "stateMutability": "nonpayable",
      "type": "function"
    },
    {
      "inputs": [],
      "name": "attackBoss",
      "outputs": [],
      "stateMutability": "nonpayable",
      "type": "function"
    },
    {
      "inputs": [
        {
          "internalType": "address",
          "name": "owner",
          "type": "address"
        }
      ],
      "name": "balanceOf",
      "outputs": [
        {
          "internalType": "uint256",
          "name": "",
          "type": "uint256"
        }
      ],
      "stateMutability": "view",
      "type": "function"
    },
    {
      "inputs": [],
      "name": "bigBoss",
      "outputs": [
        {
          "internalType": "string",
          "name": "name",
          "type": "string"
        },
        {
          "internalType": "string",
          "name": "imageURI",
          "type": "string"
        },
        {
          "internalType": "uint256",
          "name": "hp",
          "type": "uint256"
        },
        {
          "internalType": "uint256",
          "name": "maxHp",
          "type": "uint256"
        },
        {
          "internalType": "uint256",
          "name": "attackDamage",
          "type": "uint256"
        }
      ],
      "stateMutability": "view",
      "type": "function"
    },
    {
      "inputs": [],
      "name": "checkIfUserHasNFT",
      "outputs": [
        {
          "components": [
            {
              "internalType": "uint256",
              "name": "characterIndex",
              "type": "uint256"
            },
            {
              "internalType": "string",
              "name": "name",
              "type": "string"
            },
            {
              "internalType": "string",
              "name": "imageURI",
              "type": "string"
            },
            {
              "internalType": "uint256",
              "name": "hp",
              "type": "uint256"
            },
            {
              "internalType": "uint256",
              "name": "maxHp",
              "type": "uint256"
            },
            {
              "internalType": "uint256",
              "name": "attackDamage",
              "type": "uint256"
            }
          ],
          "internalType": "struct MyEpicGame.CharacterAttributes",
          "name": "",
          "type": "tuple"
        }
      ],
      "stateMutability": "view",
      "type": "function"
    },
    {
      "inputs": [],
      "name": "getAllDefaultCharacters",
      "outputs": [
        {
          "components": [
            {
              "internalType": "uint256",
              "name": "characterIndex",
              "type": "uint256"
            },
            {
              "internalType": "string",
              "name": "name",
              "type": "string"
            },
            {
              "internalType": "string",
              "name": "imageURI",
              "type": "string"
            },
            {
              "internalType": "uint256",
              "name": "hp",
              "type": "uint256"
            },
            {
              "internalType": "uint256",
              "name": "maxHp",
              "type": "uint256"
            },
            {
              "internalType": "uint256",
              "name": "attackDamage",
              "type": "uint256"
            }
          ],
          "internalType": "struct MyEpicGame.CharacterAttributes[]",
          "name": "",
          "type": "tuple[]"
        }
      ],
      "stateMutability": "view",
      "type": "function"
    },
    {
      "inputs": [
        {
          "internalType": "uint256",
          "name": "tokenId",
          "type": "uint256"
        }
      ],
      "name": "getApproved",
      "outputs": [
        {
          "internalType": "address",
          "name": "",
          "type": "address"
        }
      ],
      "stateMutability": "view",
      "type": "function"
    },
    {
      "inputs": [],
      "name": "getBigBoss",
      "outputs": [
        {
          "components": [
            {
              "internalType": "string",
              "name": "name",
              "type": "string"
            },
            {
              "internalType": "string",
              "name": "imageURI",
              "type": "string"
            },
            {
              "internalType": "uint256",
              "name": "hp",
              "type": "uint256"
            },
            {
              "internalType": "uint256",
              "name": "maxHp",
              "type": "uint256"
            },
            {
              "internalType": "uint256",
              "name": "attackDamage",
              "type": "uint256"
            }
          ],
          "internalType": "struct MyEpicGame.BigBoss",
          "name": "",
          "type": "tuple"
        }
      ],
      "stateMutability": "view",
      "type": "function"
    },
    {
      "inputs": [
        {
          "internalType": "address",
          "name": "owner",
          "type": "address"
        },
        {
          "internalType": "address",
          "name": "operator",
          "type": "address"
        }
      ],
      "name": "isApprovedForAll",
      "outputs": [
        {
          "internalType": "bool",
          "name": "",
          "type": "bool"
        }
      ],
      "stateMutability": "view",
      "type": "function"
    },
    {
      "inputs": [
        {
          "internalType": "uint256",
          "name": "_characterIndex",
          "type": "uint256"
        }
      ],
      "name": "mintCharacterNFT",
      "outputs": [],
      "stateMutability": "nonpayable",
      "type": "function"
    },
    {
      "inputs": [],
      "name": "name",
      "outputs": [
        {
          "internalType": "string",
          "name": "",
          "type": "string"
        }
      ],
      "stateMutability": "view",
      "type": "function"
    },
    {
      "inputs": [
        {
          "internalType": "uint256",
          "name": "",
          "type": "uint256"
        }
      ],
      "name": "nftHolderAttributes",
      "outputs": [
        {
          "internalType": "uint256",
          "name": "characterIndex",
          "type": "uint256"
        },
        {
          "internalType": "string",
          "name": "name",
          "type": "string"
        },
        {
          "internalType": "string",
          "name": "imageURI",
          "type": "string"
        },
        {
          "internalType": "uint256",
          "name": "hp",
          "type": "uint256"
        },
        {
          "internalType": "uint256",
          "name": "maxHp",
          "type": "uint256"
        },
        {
          "internalType": "uint256",
          "name": "attackDamage",
          "type": "uint256"
        }
      ],
      "stateMutability": "view",
      "type": "function"
    },
    {
      "inputs": [
        {
          "internalType": "address",
          "name": "",
          "type": "address"
        }
      ],
      "name": "nftHolders",
      "outputs": [
        {
          "internalType": "uint256",
          "name": "",
          "type": "uint256"
        }
      ],
      "stateMutability": "view",
      "type": "function"
    },
    {
      "inputs": [
        {
          "internalType": "uint256",
          "name": "tokenId",
          "type": "uint256"
        }
      ],
      "name": "ownerOf",
      "outputs": [
        {
          "internalType": "address",
          "name": "",
          "type": "address"
        }
      ],
      "stateMutability": "view",
      "type": "function"
    },
    {
      "inputs": [],
      "name": "reviveBoss",
      "outputs": [],
      "stateMutability": "nonpayable",
      "type": "function"
    },
    {
      "inputs": [
        {
          "internalType": "address",
          "name": "from",
          "type": "address"
        },
        {
          "internalType": "address",
          "name": "to",
          "type": "address"
        },
        {
          "internalType": "uint256",
          "name": "tokenId",
          "type": "uint256"
        }
      ],
      "name": "safeTransferFrom",
      "outputs": [],
      "stateMutability": "nonpayable",
      "type": "function"
    },
    {
      "inputs": [
        {
          "internalType": "address",
          "name": "from",
          "type": "address"
        },
        {
          "internalType": "address",
          "name": "to",
          "type": "address"
        },
        {
          "internalType": "uint256",
          "name": "tokenId",
          "type": "uint256"
        },
        {
          "internalType": "bytes",
          "name": "_data",
          "type": "bytes"
        }
      ],
      "name": "safeTransferFrom",
      "outputs": [],
      "stateMutability": "nonpayable",
      "type": "function"
    },
    {
      "inputs": [
        {
          "internalType": "address",
          "name": "operator",
          "type": "address"
        },
        {
          "internalType": "bool",
          "name": "approved",
          "type": "bool"
        }
      ],
      "name": "setApprovalForAll",
      "outputs": [],
      "stateMutability": "nonpayable",
      "type": "function"
    },
    {
      "inputs": [
        {
          "internalType": "bytes4",
          "name": "interfaceId",
          "type": "bytes4"
        }
      ],
      "name": "supportsInterface",
      "outputs": [
        {
          "internalType": "bool",
          "name": "",
          "type": "bool"
        }
      ],
      "stateMutability": "view",
      "type": "function"
    },
    {
      "inputs": [],
      "name": "symbol",
      "outputs": [
        {
          "internalType": "string",
          "name": "",
          "type": "string"
        }
      ],
      "stateMutability": "view",
      "type": "function"
    },
    {
      "inputs": [
        {
          "internalType": "uint256",
          "name": "_tokenId",
          "type": "uint256"
        }
      ],
      "name": "tokenURI",
      "outputs": [
        {
          "internalType": "string",
          "name": "",
          "type": "string"
        }
      ],
      "stateMutability": "view",
      "type": "function"
    },
    {
      "inputs": [
        {
          "internalType": "address",
          "name": "from",
          "type": "address"
        },
        {
          "internalType": "address",
          "name": "to",
          "type": "address"
        },
        {
          "internalType": "uint256",
          "name": "tokenId",
          "type": "uint256"
        }
      ],
      "name": "transferFrom",
      "outputs": [],
      "stateMutability": "nonpayable",
      "type": "function"
    }
  ],
  "bytecode": "0x60806040523480156200001157600080fd5b50604051620058c6380380620058c6833981810160405281019062000037919062000a5a565b6040518060400160405280600681526020017f4865726f657300000000000000000000000000000000000000000000000000008152506040518060400160405280600481526020017f4845524f000000000000000000000000000000000000000000000000000000008152508160009080519060200190620000bb929190620007ed565b508060019080519060200190620000d4929190620007ed565b5050506040518060a0016040528085815260200184815260200183815260200183815260200182815250600860008201518160000190805190602001906200011e929190620007ed565b5060208201518160010190805190602001906200013d929190620007ed565b50604082015181600201556060820151816003015560808201518160040155905050620002c06040518060600160405280602a81526020016200589c602a9139600860000180546200018f9062000de5565b80601f0160208091040260200160405190810160405280929190818152602001828054620001bd9062000de5565b80156200020e5780601f10620001e2576101008083540402835291602001916200020e565b820191906000526020600020905b815481529060010190602001808311620001f057829003601f168201915b5050505050600860020154600860010180546200022b9062000de5565b80601f0160208091040260200160405190810160405280929190818152602001828054620002599062000de5565b8015620002aa5780601f106200027e57610100808354040283529160200191620002aa565b820191906000526020600020905b8154815290600101906020018083116200028c57829003601f168201915b50505050506200070260201b62001cd11760201c565b60005b8851811015620006dc5760076040518060c001604052808381526020018b84815181106200031a577f4e487b7100000000000000000000000000000000000000000000000000000000600052603260045260246000fd5b602002602001015181526020018a848151811062000361577f4e487b7100000000000000000000000000000000000000000000000000000000600052603260045260246000fd5b60200260200101518152602001898481518110620003a8577f4e487b7100000000000000000000000000000000000000000000000000000000600052603260045260246000fd5b60200260200101518152602001898481518110620003ef577f4e487b7100000000000000000000000000000000000000000000000000000000600052603260045260246000fd5b6020026020010151815260200188848151811062000436577f4e487b7100000000000000000000000000000000000000000000000000000000600052603260045260246000fd5b6020026020010151815250908060018154018082558091505060019003906000526020600020906006020160009091909190915060008201518160000155602082015181600101908051906020019062000492929190620007ed565b506040820151816002019080519060200190620004b1929190620007ed565b50606082015181600301556080820151816004015560a0820151816005015550506000600782815481106200050f577f4e487b7100000000000000000000000000000000000000000000000000000000600052603260045260246000fd5b90600052602060002090600602016040518060c001604052908160008201548152602001600182018054620005449062000de5565b80601f0160208091040260200160405190810160405280929190818152602001828054620005729062000de5565b8015620005c35780601f106200059757610100808354040283529160200191620005c3565b820191906000526020600020905b815481529060010190602001808311620005a557829003601f168201915b50505050508152602001600282018054620005de9062000de5565b80601f01602080910402602001604051908101604052809291908181526020018280546200060c9062000de5565b80156200065d5780601f1062000631576101008083540402835291602001916200065d565b820191906000526020600020905b8154815290600101906020018083116200063f57829003601f168201915b5050505050815260200160038201548152602001600482015481526020016005820154815250509050620006c460405180606001604052806025815260200162005877602591398260200151836060015184604001516200070260201b62001cd11760201c565b50600181620006d4919062000d48565b9050620002c3565b50620006f46006620007ae60201b62001d731760201c565b505050505050505062000ed3565b620007a8848484846040516024016200071f949392919062000c05565b6040516020818303038152906040527f8d142cdd000000000000000000000000000000000000000000000000000000007bffffffffffffffffffffffffffffffffffffffffffffffffffffffff19166020820180517bffffffffffffffffffffffffffffffffffffffffffffffffffffffff8381831617835250505050620007c460201b60201c565b50505050565b6001816000016000828254019250508190555050565b60008151905060006a636f6e736f6c652e6c6f679050602083016000808483855afa5050505050565b828054620007fb9062000de5565b90600052602060002090601f0160209004810192826200081f57600085556200086b565b82601f106200083a57805160ff19168380011785556200086b565b828001600101855582156200086b579182015b828111156200086a5782518255916020019190600101906200084d565b5b5090506200087a91906200087e565b5090565b5b80821115620008995760008160009055506001016200087f565b5090565b6000620008b4620008ae8462000c9b565b62000c67565b9050808382526020820190508260005b85811015620008f85781518501620008dd888262000a16565b845260208401935060208301925050600181019050620008c4565b5050509392505050565b600062000919620009138462000cca565b62000c67565b905080838252602082019050828560208602820111156200093957600080fd5b60005b858110156200096d578162000952888262000a43565b8452602084019350602083019250506001810190506200093c565b5050509392505050565b60006200098e620009888462000cf9565b62000c67565b905082815260208101848484011115620009a757600080fd5b620009b484828562000daf565b509392505050565b600082601f830112620009ce57600080fd5b8151620009e08482602086016200089d565b91505092915050565b600082601f830112620009fb57600080fd5b815162000a0d84826020860162000902565b91505092915050565b600082601f83011262000a2857600080fd5b815162000a3a84826020860162000977565b91505092915050565b60008151905062000a548162000eb9565b92915050565b600080600080600080600080610100898b03121562000a7857600080fd5b600089015167ffffffffffffffff81111562000a9357600080fd5b62000aa18b828c01620009bc565b985050602089015167ffffffffffffffff81111562000abf57600080fd5b62000acd8b828c01620009bc565b975050604089015167ffffffffffffffff81111562000aeb57600080fd5b62000af98b828c01620009e9565b965050606089015167ffffffffffffffff81111562000b1757600080fd5b62000b258b828c01620009e9565b955050608089015167ffffffffffffffff81111562000b4357600080fd5b62000b518b828c0162000a16565b94505060a089015167ffffffffffffffff81111562000b6f57600080fd5b62000b7d8b828c0162000a16565b93505060c062000b908b828c0162000a43565b92505060e062000ba38b828c0162000a43565b9150509295985092959890939650565b600062000bc08262000d2c565b62000bcc818562000d37565b935062000bde81856020860162000daf565b62000be98162000ea8565b840191505092915050565b62000bff8162000da5565b82525050565b6000608082019050818103600083015262000c21818762000bb3565b9050818103602083015262000c37818662000bb3565b905062000c48604083018562000bf4565b818103606083015262000c5c818462000bb3565b905095945050505050565b6000604051905081810181811067ffffffffffffffff8211171562000c915762000c9062000e79565b5b8060405250919050565b600067ffffffffffffffff82111562000cb95762000cb862000e79565b5b602082029050602081019050919050565b600067ffffffffffffffff82111562000ce85762000ce762000e79565b5b602082029050602081019050919050565b600067ffffffffffffffff82111562000d175762000d1662000e79565b5b601f19601f8301169050602081019050919050565b600081519050919050565b600082825260208201905092915050565b600062000d558262000da5565b915062000d628362000da5565b9250827fffffffffffffffffffffffffffffffffffffffffffffffffffffffffffffffff0382111562000d9a5762000d9962000e1b565b5b828201905092915050565b6000819050919050565b60005b8381101562000dcf57808201518184015260208101905062000db2565b8381111562000ddf576000848401525b50505050565b6000600282049050600182168062000dfe57607f821691505b6020821081141562000e155762000e1462000e4a565b5b50919050565b7f4e487b7100000000000000000000000000000000000000000000000000000000600052601160045260246000fd5b7f4e487b7100000000000000000000000000000000000000000000000000000000600052602260045260246000fd5b7f4e487b7100000000000000000000000000000000000000000000000000000000600052604160045260246000fd5b6000601f19601f8301169050919050565b62000ec48162000da5565b811462000ed057600080fd5b50565b6149948062000ee36000396000f3fe608060405234801561001057600080fd5b50600436106101425760003560e01c806395d89b41116100b8578063b953084e1161007c578063b953084e1461037e578063c87b56dd1461039c578063c8cf27f4146103cc578063d4f24c5b146103ea578063e985e9c5146103f4578063f8b81ef71461042457610142565b806395d89b41146102d157806398da4c95146102ef578063a22cb46514610324578063a9c3267914610340578063b88d4fde1461036257610142565b806323b872dd1161010a57806323b872dd146101ff57806342842e0e1461021b5780636352211e1461023757806370a08231146102675780637bca30e6146102975780637df124a1146102a157610142565b806301ffc9a7146101475780630665f9611461017757806306fdde0314610195578063081812fc146101b3578063095ea7b3146101e3575b600080fd5b610161600480360381019061015c9190613118565b610440565b60405161016e9190613f04565b60405180910390f35b61017f610522565b60405161018c91906142bd565b60405180910390f35b61019d61067e565b6040516101aa9190613f1f565b60405180910390f35b6101cd60048036038101906101c8919061316a565b610710565b6040516101da9190613e44565b60405180910390f35b6101fd60048036038101906101f891906130dc565b610795565b005b61021960048036038101906102149190612fd6565b6108ad565b005b61023560048036038101906102309190612fd6565b61090d565b005b610251600480360381019061024c919061316a565b61092d565b60405161025e9190613e44565b60405180910390f35b610281600480360381019061027c9190612f71565b6109df565b60405161028e9190614301565b60405180910390f35b61029f610a97565b005b6102bb60048036038101906102b69190612f71565b610b7e565b6040516102c89190614301565b60405180910390f35b6102d9610b96565b6040516102e69190613f1f565b60405180910390f35b6103096004803603810190610304919061316a565b610c28565b60405161031b9695949392919061431c565b60405180910390f35b61033e600480360381019061033991906130a0565b610d74565b005b610348610d8a565b604051610359959493929190613fee565b60405180910390f35b61037c60048036038101906103779190613025565b610ebe565b005b610386610f20565b6040516103939190613ee2565b60405180910390f35b6103b660048036038101906103b1919061316a565b6110cb565b6040516103c39190613f1f565b60405180910390f35b6103d46112e6565b6040516103e191906142df565b60405180910390f35b6103f26114be565b005b61040e60048036038101906104099190612f9a565b611849565b60405161041b9190613f04565b60405180910390f35b61043e6004803603810190610439919061316a565b6118dd565b005b60007f80ac58cd000000000000000000000000000000000000000000000000000000007bffffffffffffffffffffffffffffffffffffffffffffffffffffffff1916827bffffffffffffffffffffffffffffffffffffffffffffffffffffffff1916148061050b57507f5b5e139f000000000000000000000000000000000000000000000000000000007bffffffffffffffffffffffffffffffffffffffffffffffffffffffff1916827bffffffffffffffffffffffffffffffffffffffffffffffffffffffff1916145b8061051b575061051a82611d89565b5b9050919050565b61052a612d98565b60086040518060a00160405290816000820180546105479061466d565b80601f01602080910402602001604051908101604052809291908181526020018280546105739061466d565b80156105c05780601f10610595576101008083540402835291602001916105c0565b820191906000526020600020905b8154815290600101906020018083116105a357829003601f168201915b505050505081526020016001820180546105d99061466d565b80601f01602080910402602001604051908101604052809291908181526020018280546106059061466d565b80156106525780601f1061062757610100808354040283529160200191610652565b820191906000526020600020905b81548152906001019060200180831161063557829003601f168201915b505050505081526020016002820154815260200160038201548152602001600482015481525050905090565b60606000805461068d9061466d565b80601f01602080910402602001604051908101604052809291908181526020018280546106b99061466d565b80156107065780601f106106db57610100808354040283529160200191610706565b820191906000526020600020905b8154815290600101906020018083116106e957829003601f168201915b5050505050905090565b600061071b82611df3565b61075a576040517f08c379a0000000000000000000000000000000000000000000000000000000008152600401610751906141fd565b60405180910390fd5b6004600083815260200190815260200160002060009054906101000a900473ffffffffffffffffffffffffffffffffffffffff169050919050565b60006107a08261092d565b90508073ffffffffffffffffffffffffffffffffffffffff168373ffffffffffffffffffffffffffffffffffffffff161415610811576040517f08c379a00000000000000000000000000000000000000000000000000000000081526004016108089061423d565b60405180910390fd5b8073ffffffffffffffffffffffffffffffffffffffff16610830611e5f565b73ffffffffffffffffffffffffffffffffffffffff16148061085f575061085e81610859611e5f565b611849565b5b61089e576040517f08c379a00000000000000000000000000000000000000000000000000000000081526004016108959061417d565b60405180910390fd5b6108a88383611e67565b505050565b6108be6108b8611e5f565b82611f20565b6108fd576040517f08c379a00000000000000000000000000000000000000000000000000000000081526004016108f49061429d565b60405180910390fd5b610908838383611ffe565b505050565b61092883838360405180602001604052806000815250610ebe565b505050565b6000806002600084815260200190815260200160002060009054906101000a900473ffffffffffffffffffffffffffffffffffffffff169050600073ffffffffffffffffffffffffffffffffffffffff168173ffffffffffffffffffffffffffffffffffffffff1614156109d6576040517f08c379a00000000000000000000000000000000000000000000000000000000081526004016109cd906141bd565b60405180910390fd5b80915050919050565b60008073ffffffffffffffffffffffffffffffffffffffff168273ffffffffffffffffffffffffffffffffffffffff161415610a50576040517f08c379a0000000000000000000000000000000000000000000000000000000008152600401610a479061419d565b60405180910390fd5b600360008373ffffffffffffffffffffffffffffffffffffffff1673ffffffffffffffffffffffffffffffffffffffff168152602001908152602001600020549050919050565b600060086002015414610adf576040517f08c379a0000000000000000000000000000000000000000000000000000000008152600401610ad69061425d565b60405180910390fd5b6004600860030154610af191906144f8565b600860030154610b0191906144a2565b600860030181905550600860030154600860020181905550610b406040518060600160405280602581526020016148686025913960086002015461225a565b7fe5dca2e17d1b2de51b30f87baf00d3e715adb800509adb37a36e51c8e7befbc9600860020154604051610b749190614301565b60405180910390a1565b600e6020528060005260406000206000915090505481565b606060018054610ba59061466d565b80601f0160208091040260200160405190810160405280929190818152602001828054610bd19061466d565b8015610c1e5780601f10610bf357610100808354040283529160200191610c1e565b820191906000526020600020905b815481529060010190602001808311610c0157829003601f168201915b5050505050905090565b600d602052806000526040600020600091509050806000015490806001018054610c519061466d565b80601f0160208091040260200160405190810160405280929190818152602001828054610c7d9061466d565b8015610cca5780601f10610c9f57610100808354040283529160200191610cca565b820191906000526020600020905b815481529060010190602001808311610cad57829003601f168201915b505050505090806002018054610cdf9061466d565b80601f0160208091040260200160405190810160405280929190818152602001828054610d0b9061466d565b8015610d585780601f10610d2d57610100808354040283529160200191610d58565b820191906000526020600020905b815481529060010190602001808311610d3b57829003601f168201915b5050505050908060030154908060040154908060050154905086565b610d86610d7f611e5f565b83836122f6565b5050565b6008806000018054610d9b9061466d565b80601f0160208091040260200160405190810160405280929190818152602001828054610dc79061466d565b8015610e145780601f10610de957610100808354040283529160200191610e14565b820191906000526020600020905b815481529060010190602001808311610df757829003601f168201915b505050505090806001018054610e299061466d565b80601f0160208091040260200160405190810160405280929190818152602001828054610e559061466d565b8015610ea25780601f10610e7757610100808354040283529160200191610ea2565b820191906000526020600020905b815481529060010190602001808311610e8557829003601f168201915b5050505050908060020154908060030154908060040154905085565b610ecf610ec9611e5f565b83611f20565b610f0e576040517f08c379a0000000000000000000000000000000000000000000000000000000008152600401610f059061429d565b60405180910390fd5b610f1a84848484612463565b50505050565b60606007805480602002602001604051908101604052809291908181526020016000905b828210156110c257838290600052602060002090600602016040518060c001604052908160008201548152602001600182018054610f819061466d565b80601f0160208091040260200160405190810160405280929190818152602001828054610fad9061466d565b8015610ffa5780601f10610fcf57610100808354040283529160200191610ffa565b820191906000526020600020905b815481529060010190602001808311610fdd57829003601f168201915b505050505081526020016002820180546110139061466d565b80601f016020809104026020016040519081016040528092919081815260200182805461103f9061466d565b801561108c5780601f106110615761010080835404028352916020019161108c565b820191906000526020600020905b81548152906001019060200180831161106f57829003601f168201915b50505050508152602001600382015481526020016004820154815260200160058201548152505081526020019060010190610f44565b50505050905090565b60606000600d60008481526020019081526020016000206040518060c0016040529081600082015481526020016001820180546111079061466d565b80601f01602080910402602001604051908101604052809291908181526020018280546111339061466d565b80156111805780601f1061115557610100808354040283529160200191611180565b820191906000526020600020905b81548152906001019060200180831161116357829003601f168201915b505050505081526020016002820180546111999061466d565b80601f01602080910402602001604051908101604052809291908181526020018280546111c59061466d565b80156112125780601f106111e757610100808354040283529160200191611212565b820191906000526020600020905b8154815290600101906020018083116111f557829003601f168201915b5050505050815260200160038201548152602001600482015481526020016005820154815250509050600061124a82606001516124bf565b9050600061125b83608001516124bf565b9050600061126c8460a001516124bf565b905060006112b28560200151611281896124bf565b876040015187878760405160200161129e96959493929190613d7d565b60405160208183030381529060405261266c565b90506000816040516020016112c79190613e22565b6040516020818303038152906040529050809650505050505050919050565b6112ee612dc7565b6000600e60003373ffffffffffffffffffffffffffffffffffffffff1673ffffffffffffffffffffffffffffffffffffffff16815260200190815260200160002054905060008111156114ad57600d60008281526020019081526020016000206040518060c0016040529081600082015481526020016001820180546113739061466d565b80601f016020809104026020016040519081016040528092919081815260200182805461139f9061466d565b80156113ec5780601f106113c1576101008083540402835291602001916113ec565b820191906000526020600020905b8154815290600101906020018083116113cf57829003601f168201915b505050505081526020016002820180546114059061466d565b80601f01602080910402602001604051908101604052809291908181526020018280546114319061466d565b801561147e5780601f106114535761010080835404028352916020019161147e565b820191906000526020600020905b81548152906001019060200180831161146157829003601f168201915b5050505050815260200160038201548152602001600482015481526020016005820154815250509150506114bb565b6114b5612dc7565b80925050505b90565b6000600e60003373ffffffffffffffffffffffffffffffffffffffff1673ffffffffffffffffffffffffffffffffffffffff1681526020019081526020016000205490506000600d600083815260200190815260200160002090506115d16040518060600160405280603c8152602001614923603c91398260010180546115449061466d565b80601f01602080910402602001604051908101604052809291908181526020018280546115709061466d565b80156115bd5780601f10611592576101008083540402835291602001916115bd565b820191906000526020600020905b8154815290600101906020018083116115a057829003601f168201915b50505050508360030154846005015461282a565b6116a96040518060400160405280601b81526020017f426f73732025732068617320257320485020616e6420257320414400000000008152506008600001805461161a9061466d565b80601f01602080910402602001604051908101604052809291908181526020018280546116469061466d565b80156116935780601f1061166857610100808354040283529160200191611693565b820191906000526020600020905b81548152906001019060200180831161167657829003601f168201915b505050505060086002015460086004015461282a565b60008160030154116116f0576040517f08c379a00000000000000000000000000000000000000000000000000000000081526004016116e7906140bd565b60405180910390fd5b600060086002015411611738576040517f08c379a000000000000000000000000000000000000000000000000000000000815260040161172f9061427d565b60405180910390fd5b80600501546008600201541015611759576000600860020181905550611778565b806005015460086002015461176e9190614583565b6008600201819055505b6008600401548160030154101561179857600081600301819055506117b6565b60086004015481600301546117ad9190614583565b81600301819055505b6117dd6040518060600160405280602581526020016148436025913960086002015461225a565b6118036040518060600160405280602881526020016148cd60289139826003015461225a565b7f838ab28464562786a6c4ab2311964b82fa60bd9b14aa7e856af1f3f18d41a414600860020154826003015460405161183d92919061438b565b60405180910390a15050565b6000600560008473ffffffffffffffffffffffffffffffffffffffff1673ffffffffffffffffffffffffffffffffffffffff16815260200190815260200160002060008373ffffffffffffffffffffffffffffffffffffffff1673ffffffffffffffffffffffffffffffffffffffff16815260200190815260200160002060009054906101000a900460ff16905092915050565b60006118e960066128cc565b90506118f533826128da565b6040518060c0016040528083815260200160078481548110611940577f4e487b7100000000000000000000000000000000000000000000000000000000600052603260045260246000fd5b9060005260206000209060060201600101805461195c9061466d565b80601f01602080910402602001604051908101604052809291908181526020018280546119889061466d565b80156119d55780601f106119aa576101008083540402835291602001916119d5565b820191906000526020600020905b8154815290600101906020018083116119b857829003601f168201915b5050505050815260200160078481548110611a19577f4e487b7100000000000000000000000000000000000000000000000000000000600052603260045260246000fd5b90600052602060002090600602016002018054611a359061466d565b80601f0160208091040260200160405190810160405280929190818152602001828054611a619061466d565b8015611aae5780601f10611a8357610100808354040283529160200191611aae565b820191906000526020600020905b815481529060010190602001808311611a9157829003601f168201915b5050505050815260200160078481548110611af2577f4e487b7100000000000000000000000000000000000000000000000000000000600052603260045260246000fd5b906000526020600020906006020160030154815260200160078481548110611b43577f4e487b7100000000000000000000000000000000000000000000000000000000600052603260045260246000fd5b906000526020600020906006020160040154815260200160078481548110611b94577f4e487b7100000000000000000000000000000000000000000000000000000000600052603260045260246000fd5b906000526020600020906006020160050154815250600d6000838152602001908152602001600020600082015181600001556020820151816001019080519060200190611be2929190612dfd565b506040820151816002019080519060200190611bff929190612dfd565b50606082015181600301556080820151816004015560a08201518160050155905050611c446040518060600160405280602e81526020016148f5602e913982846128f8565b80600e60003373ffffffffffffffffffffffffffffffffffffffff1673ffffffffffffffffffffffffffffffffffffffff16815260200190815260200160002081905550611c926006611d73565b7f4bc303fd457a97b4691b9af582ce71868a3d258638c8d4f8c60988a0f0bfb8cd338284604051611cc593929190613eab565b60405180910390a15050565b611d6d84848484604051602401611ceb9493929190613f41565b6040516020818303038152906040527f8d142cdd000000000000000000000000000000000000000000000000000000007bffffffffffffffffffffffffffffffffffffffffffffffffffffffff19166020820180517bffffffffffffffffffffffffffffffffffffffffffffffffffffffff8381831617835250505050612997565b50505050565b6001816000016000828254019250508190555050565b60007f01ffc9a7000000000000000000000000000000000000000000000000000000007bffffffffffffffffffffffffffffffffffffffffffffffffffffffff1916827bffffffffffffffffffffffffffffffffffffffffffffffffffffffff1916149050919050565b60008073ffffffffffffffffffffffffffffffffffffffff166002600084815260200190815260200160002060009054906101000a900473ffffffffffffffffffffffffffffffffffffffff1673ffffffffffffffffffffffffffffffffffffffff1614159050919050565b600033905090565b816004600083815260200190815260200160002060006101000a81548173ffffffffffffffffffffffffffffffffffffffff021916908373ffffffffffffffffffffffffffffffffffffffff160217905550808273ffffffffffffffffffffffffffffffffffffffff16611eda8361092d565b73ffffffffffffffffffffffffffffffffffffffff167f8c5be1e5ebec7d5bd14f71427d1e84f3dd0314c0f7b2291e5b200ac8c7c3b92560405160405180910390a45050565b6000611f2b82611df3565b611f6a576040517f08c379a0000000000000000000000000000000000000000000000000000000008152600401611f619061415d565b60405180910390fd5b6000611f758361092d565b90508073ffffffffffffffffffffffffffffffffffffffff168473ffffffffffffffffffffffffffffffffffffffff161480611fe457508373ffffffffffffffffffffffffffffffffffffffff16611fcc84610710565b73ffffffffffffffffffffffffffffffffffffffff16145b80611ff55750611ff48185611849565b5b91505092915050565b8273ffffffffffffffffffffffffffffffffffffffff1661201e8261092d565b73ffffffffffffffffffffffffffffffffffffffff1614612074576040517f08c379a000000000000000000000000000000000000000000000000000000000815260040161206b9061421d565b60405180910390fd5b600073ffffffffffffffffffffffffffffffffffffffff168273ffffffffffffffffffffffffffffffffffffffff1614156120e4576040517f08c379a00000000000000000000000000000000000000000000000000000000081526004016120db9061411d565b60405180910390fd5b6120ef8383836129c0565b6120fa600082611e67565b6001600360008573ffffffffffffffffffffffffffffffffffffffff1673ffffffffffffffffffffffffffffffffffffffff168152602001908152602001600020600082825461214a9190614583565b925050819055506001600360008473ffffffffffffffffffffffffffffffffffffffff1673ffffffffffffffffffffffffffffffffffffffff16815260200190815260200160002060008282546121a191906144a2565b92505081905550816002600083815260200190815260200160002060006101000a81548173ffffffffffffffffffffffffffffffffffffffff021916908373ffffffffffffffffffffffffffffffffffffffff160217905550808273ffffffffffffffffffffffffffffffffffffffff168473ffffffffffffffffffffffffffffffffffffffff167fddf252ad1be2c89b69c2b068fc378daa952ba7f163c4a11628f55a4df523b3ef60405160405180910390a4505050565b6122f2828260405160240161227092919061404f565b6040516020818303038152906040527f9710a9d0000000000000000000000000000000000000000000000000000000007bffffffffffffffffffffffffffffffffffffffffffffffffffffffff19166020820180517bffffffffffffffffffffffffffffffffffffffffffffffffffffffff8381831617835250505050612997565b5050565b8173ffffffffffffffffffffffffffffffffffffffff168373ffffffffffffffffffffffffffffffffffffffff161415612365576040517f08c379a000000000000000000000000000000000000000000000000000000000815260040161235c9061413d565b60405180910390fd5b80600560008573ffffffffffffffffffffffffffffffffffffffff1673ffffffffffffffffffffffffffffffffffffffff16815260200190815260200160002060008473ffffffffffffffffffffffffffffffffffffffff1673ffffffffffffffffffffffffffffffffffffffff16815260200190815260200160002060006101000a81548160ff0219169083151502179055508173ffffffffffffffffffffffffffffffffffffffff168373ffffffffffffffffffffffffffffffffffffffff167f17307eab39ab6107e8899845ad3d59bd9653f200f220920489ca2b5937696c31836040516124569190613f04565b60405180910390a3505050565b61246e848484611ffe565b61247a848484846129c5565b6124b9576040517f08c379a00000000000000000000000000000000000000000000000000000000081526004016124b0906140dd565b60405180910390fd5b50505050565b60606000821415612507576040518060400160405280600181526020017f30000000000000000000000000000000000000000000000000000000000000008152509050612667565b600082905060005b600082146125395780806125229061469f565b915050600a8261253291906144f8565b915061250f565b60008167ffffffffffffffff81111561257b577f4e487b7100000000000000000000000000000000000000000000000000000000600052604160045260246000fd5b6040519080825280601f01601f1916602001820160405280156125ad5781602001600182028036833780820191505090505b5090505b60008514612660576001826125c69190614583565b9150600a856125d591906146e8565b60306125e191906144a2565b60f81b81838151811061261d577f4e487b7100000000000000000000000000000000000000000000000000000000600052603260045260246000fd5b60200101907effffffffffffffffffffffffffffffffffffffffffffffffffffffffffffff1916908160001a905350600a8561265991906144f8565b94506125b1565b8093505050505b919050565b606060008251905060008114156126955760405180602001604052806000815250915050612825565b600060036002836126a691906144a2565b6126b091906144f8565b60046126bc9190614529565b905060006020826126cd91906144a2565b67ffffffffffffffff81111561270c577f4e487b7100000000000000000000000000000000000000000000000000000000600052604160045260246000fd5b6040519080825280601f01601f19166020018201604052801561273e5781602001600182028036833780820191505090505b509050600060405180606001604052806040815260200161488d604091399050600181016020830160005b868110156127e25760038101905062ffffff818a015116603f8160121c168401518060081b905060ff603f83600c1c1686015116810190508060081b905060ff603f8360061c1686015116810190508060081b905060ff603f831686015116810190508060e01b90508084526004840193505050612769565b5060038606600181146127fc576002811461280c57612817565b613d3d60f01b6002830352612817565b603d60f81b60018303525b508484525050819450505050505b919050565b6128c6848484846040516024016128449493929190613f9b565b6040516020818303038152906040527fd5cf17d0000000000000000000000000000000000000000000000000000000007bffffffffffffffffffffffffffffffffffffffffffffffffffffffff19166020820180517bffffffffffffffffffffffffffffffffffffffffffffffffffffffff8381831617835250505050612997565b50505050565b600081600001549050919050565b6128f4828260405180602001604052806000815250612b5c565b5050565b6129928383836040516024016129109392919061407f565b6040516020818303038152906040527f969cdd03000000000000000000000000000000000000000000000000000000007bffffffffffffffffffffffffffffffffffffffffffffffffffffffff19166020820180517bffffffffffffffffffffffffffffffffffffffffffffffffffffffff8381831617835250505050612997565b505050565b60008151905060006a636f6e736f6c652e6c6f679050602083016000808483855afa5050505050565b505050565b60006129e68473ffffffffffffffffffffffffffffffffffffffff16612bb7565b15612b4f578373ffffffffffffffffffffffffffffffffffffffff1663150b7a02612a0f611e5f565b8786866040518563ffffffff1660e01b8152600401612a319493929190613e5f565b602060405180830381600087803b158015612a4b57600080fd5b505af1925050508015612a7c57506040513d601f19601f82011682018060405250810190612a799190613141565b60015b612aff573d8060008114612aac576040519150601f19603f3d011682016040523d82523d6000602084013e612ab1565b606091505b50600081511415612af7576040517f08c379a0000000000000000000000000000000000000000000000000000000008152600401612aee906140dd565b60405180910390fd5b805181602001fd5b63150b7a0260e01b7bffffffffffffffffffffffffffffffffffffffffffffffffffffffff1916817bffffffffffffffffffffffffffffffffffffffffffffffffffffffff191614915050612b54565b600190505b949350505050565b612b668383612bca565b612b7360008484846129c5565b612bb2576040517f08c379a0000000000000000000000000000000000000000000000000000000008152600401612ba9906140dd565b60405180910390fd5b505050565b600080823b905060008111915050919050565b600073ffffffffffffffffffffffffffffffffffffffff168273ffffffffffffffffffffffffffffffffffffffff161415612c3a576040517f08c379a0000000000000000000000000000000000000000000000000000000008152600401612c31906141dd565b60405180910390fd5b612c4381611df3565b15612c83576040517f08c379a0000000000000000000000000000000000000000000000000000000008152600401612c7a906140fd565b60405180910390fd5b612c8f600083836129c0565b6001600360008473ffffffffffffffffffffffffffffffffffffffff1673ffffffffffffffffffffffffffffffffffffffff1681526020019081526020016000206000828254612cdf91906144a2565b92505081905550816002600083815260200190815260200160002060006101000a81548173ffffffffffffffffffffffffffffffffffffffff021916908373ffffffffffffffffffffffffffffffffffffffff160217905550808273ffffffffffffffffffffffffffffffffffffffff16600073ffffffffffffffffffffffffffffffffffffffff167fddf252ad1be2c89b69c2b068fc378daa952ba7f163c4a11628f55a4df523b3ef60405160405180910390a45050565b6040518060a0016040528060608152602001606081526020016000815260200160008152602001600081525090565b6040518060c001604052806000815260200160608152602001606081526020016000815260200160008152602001600081525090565b828054612e099061466d565b90600052602060002090601f016020900481019282612e2b5760008555612e72565b82601f10612e4457805160ff1916838001178555612e72565b82800160010185558215612e72579182015b82811115612e71578251825591602001919060010190612e56565b5b509050612e7f9190612e83565b5090565b5b80821115612e9c576000816000905550600101612e84565b5090565b6000612eb3612eae846143e5565b6143b4565b905082815260208101848484011115612ecb57600080fd5b612ed684828561462b565b509392505050565b600081359050612eed816147e6565b92915050565b600081359050612f02816147fd565b92915050565b600081359050612f1781614814565b92915050565b600081519050612f2c81614814565b92915050565b600082601f830112612f4357600080fd5b8135612f53848260208601612ea0565b91505092915050565b600081359050612f6b8161482b565b92915050565b600060208284031215612f8357600080fd5b6000612f9184828501612ede565b91505092915050565b60008060408385031215612fad57600080fd5b6000612fbb85828601612ede565b9250506020612fcc85828601612ede565b9150509250929050565b600080600060608486031215612feb57600080fd5b6000612ff986828701612ede565b935050602061300a86828701612ede565b925050604061301b86828701612f5c565b9150509250925092565b6000806000806080858703121561303b57600080fd5b600061304987828801612ede565b945050602061305a87828801612ede565b935050604061306b87828801612f5c565b925050606085013567ffffffffffffffff81111561308857600080fd5b61309487828801612f32565b91505092959194509250565b600080604083850312156130b357600080fd5b60006130c185828601612ede565b92505060206130d285828601612ef3565b9150509250929050565b600080604083850312156130ef57600080fd5b60006130fd85828601612ede565b925050602061310e85828601612f5c565b9150509250929050565b60006020828403121561312a57600080fd5b600061313884828501612f08565b91505092915050565b60006020828403121561315357600080fd5b600061316184828501612f1d565b91505092915050565b60006020828403121561317c57600080fd5b600061318a84828501612f5c565b91505092915050565b600061319f8383613c3f565b905092915050565b6131b0816145b7565b82525050565b60006131c182614425565b6131cb8185614453565b9350836020820285016131dd85614415565b8060005b8581101561321957848403895281516131fa8582613193565b945061320583614446565b925060208a019950506001810190506131e1565b50829750879550505050505092915050565b613234816145c9565b82525050565b600061324582614430565b61324f8185614464565b935061325f81856020860161463a565b613268816147d5565b840191505092915050565b600061327e8261443b565b6132888185614475565b935061329881856020860161463a565b6132a1816147d5565b840191505092915050565b60006132b78261443b565b6132c18185614486565b93506132d181856020860161463a565b6132da816147d5565b840191505092915050565b60006132f08261443b565b6132fa8185614497565b935061330a81856020860161463a565b80840191505092915050565b6000613323602b83614486565b91507f4572726f723a20636861726163746572206d757374207374617920616c69766560008301527f20746f2061747461636b210000000000000000000000000000000000000000006020830152604082019050919050565b6000613389600b83614497565b91507f202d2d204e465420233a200000000000000000000000000000000000000000006000830152600b82019050919050565b60006133c9603283614486565b91507f4552433732313a207472616e7366657220746f206e6f6e20455243373231526560008301527f63656976657220696d706c656d656e74657200000000000000000000000000006020830152604082019050919050565b600061342f601c83614486565b91507f4552433732313a20746f6b656e20616c7265616479206d696e746564000000006000830152602082019050919050565b600061346f600e83614497565b91507f2c20226d61785f76616c7565223a0000000000000000000000000000000000006000830152600e82019050919050565b60006134af602483614486565b91507f4552433732313a207472616e7366657220746f20746865207a65726f2061646460008301527f72657373000000000000000000000000000000000000000000000000000000006020830152604082019050919050565b6000613515601983614486565b91507f4552433732313a20617070726f766520746f2063616c6c6572000000000000006000830152602082019050919050565b6000613555602c83614486565b91507f4552433732313a206f70657261746f7220717565727920666f72206e6f6e657860008301527f697374656e7420746f6b656e00000000000000000000000000000000000000006020830152604082019050919050565b60006135bb603883614486565b91507f4552433732313a20617070726f76652063616c6c6572206973206e6f74206f7760008301527f6e6572206e6f7220617070726f76656420666f7220616c6c00000000000000006020830152604082019050919050565b6000613621602a83614486565b91507f4552433732313a2062616c616e636520717565727920666f7220746865207a6560008301527f726f2061646472657373000000000000000000000000000000000000000000006020830152604082019050919050565b6000613687602983614486565b91507f4552433732313a206f776e657220717565727920666f72206e6f6e657869737460008301527f656e7420746f6b656e00000000000000000000000000000000000000000000006020830152604082019050919050565b60006136ed600483614497565b91507f7d205d7d000000000000000000000000000000000000000000000000000000006000830152600482019050919050565b600061372d602083614486565b91507f4552433732313a206d696e7420746f20746865207a65726f20616464726573736000830152602082019050919050565b600061376d602c83614486565b91507f4552433732313a20617070726f76656420717565727920666f72206e6f6e657860008301527f697374656e7420746f6b656e00000000000000000000000000000000000000006020830152604082019050919050565b60006137d3602983614486565b91507f4552433732313a207472616e73666572206f6620746f6b656e2074686174206960008301527f73206e6f74206f776e00000000000000000000000000000000000000000000006020830152604082019050919050565b6000613839600a83614497565b91507f7b226e616d65223a2022000000000000000000000000000000000000000000006000830152600a82019050919050565b6000613879602183614486565b91507f4552433732313a20617070726f76616c20746f2063757272656e74206f776e6560008301527f72000000000000000000000000000000000000000000000000000000000000006020830152604082019050919050565b60006138df601f83614486565b91507f4572726f723a20426f7373206973207374696c6c20627265617468696e6721006000830152602082019050919050565b600061391f601d83614497565b91507f646174613a6170706c69636174696f6e2f6a736f6e3b6261736536342c0000006000830152601d82019050919050565b600061395f604783614486565b91507f4572726f723a20426f737320697320616c72656164792064656164212055736560008301527f20446561646c7920506f74696f6e20746f206272696e6720746865206265617360208301527f7420616c697665000000000000000000000000000000000000000000000000006040830152606082019050919050565b60006139eb606983614497565b91507f222c20226465736372697074696f6e223a20225468697320697320616e204e4660008301527f542074686174206c6574732070656f706c6520706c617920696e20746865206760208301527f616d65204d657461766572736520536c6179657221222c2022696d616765223a60408301527f2022697066733a2f2f00000000000000000000000000000000000000000000006060830152606982019050919050565b6000613a9d603183614486565b91507f4552433732313a207472616e736665722063616c6c6572206973206e6f74206f60008301527f776e6572206e6f7220617070726f7665640000000000000000000000000000006020830152604082019050919050565b6000613b03603d83614497565b91507f222c202261747472696275746573223a205b207b202274726169745f7479706560008301527f223a20224865616c746820506f696e7473222c202276616c7565223a200000006020830152603d82019050919050565b6000613b69602d83614497565b91507f7d2c207b202274726169745f74797065223a202241747461636b2044616d616760008301527f65222c202276616c7565223a20000000000000000000000000000000000000006020830152602d82019050919050565b600060a0830160008301518482036000860152613bdf8282613273565b91505060208301518482036020860152613bf98282613273565b9150506040830151613c0e6040860182613d5f565b506060830151613c216060860182613d5f565b506080830151613c346080860182613d5f565b508091505092915050565b600060c083016000830151613c576000860182613d5f565b5060208301518482036020860152613c6f8282613273565b91505060408301518482036040860152613c898282613273565b9150506060830151613c9e6060860182613d5f565b506080830151613cb16080860182613d5f565b5060a0830151613cc460a0860182613d5f565b508091505092915050565b600060c083016000830151613ce76000860182613d5f565b5060208301518482036020860152613cff8282613273565b91505060408301518482036040860152613d198282613273565b9150506060830151613d2e6060860182613d5f565b506080830151613d416080860182613d5f565b5060a0830151613d5460a0860182613d5f565b508091505092915050565b613d6881614621565b82525050565b613d7781614621565b82525050565b6000613d888261382c565b9150613d9482896132e5565b9150613d9f8261337c565b9150613dab82886132e5565b9150613db6826139de565b9150613dc282876132e5565b9150613dcd82613af6565b9150613dd982866132e5565b9150613de482613462565b9150613df082856132e5565b9150613dfb82613b5c565b9150613e0782846132e5565b9150613e12826136e0565b9150819050979650505050505050565b6000613e2d82613912565b9150613e3982846132e5565b915081905092915050565b6000602082019050613e5960008301846131a7565b92915050565b6000608082019050613e7460008301876131a7565b613e8160208301866131a7565b613e8e6040830185613d6e565b8181036060830152613ea0818461323a565b905095945050505050565b6000606082019050613ec060008301866131a7565b613ecd6020830185613d6e565b613eda6040830184613d6e565b949350505050565b60006020820190508181036000830152613efc81846131b6565b905092915050565b6000602082019050613f19600083018461322b565b92915050565b60006020820190508181036000830152613f3981846132ac565b905092915050565b60006080820190508181036000830152613f5b81876132ac565b90508181036020830152613f6f81866132ac565b9050613f7e6040830185613d6e565b8181036060830152613f9081846132ac565b905095945050505050565b60006080820190508181036000830152613fb581876132ac565b90508181036020830152613fc981866132ac565b9050613fd86040830185613d6e565b613fe56060830184613d6e565b95945050505050565b600060a082019050818103600083015261400881886132ac565b9050818103602083015261401c81876132ac565b905061402b6040830186613d6e565b6140386060830185613d6e565b6140456080830184613d6e565b9695505050505050565b6000604082019050818103600083015261406981856132ac565b90506140786020830184613d6e565b9392505050565b6000606082019050818103600083015261409981866132ac565b90506140a86020830185613d6e565b6140b56040830184613d6e565b949350505050565b600060208201905081810360008301526140d681613316565b9050919050565b600060208201905081810360008301526140f6816133bc565b9050919050565b6000602082019050818103600083015261411681613422565b9050919050565b60006020820190508181036000830152614136816134a2565b9050919050565b6000602082019050818103600083015261415681613508565b9050919050565b6000602082019050818103600083015261417681613548565b9050919050565b60006020820190508181036000830152614196816135ae565b9050919050565b600060208201905081810360008301526141b681613614565b9050919050565b600060208201905081810360008301526141d68161367a565b9050919050565b600060208201905081810360008301526141f681613720565b9050919050565b6000602082019050818103600083015261421681613760565b9050919050565b60006020820190508181036000830152614236816137c6565b9050919050565b600060208201905081810360008301526142568161386c565b9050919050565b60006020820190508181036000830152614276816138d2565b9050919050565b6000602082019050818103600083015261429681613952565b9050919050565b600060208201905081810360008301526142b681613a90565b9050919050565b600060208201905081810360008301526142d78184613bc2565b905092915050565b600060208201905081810360008301526142f98184613ccf565b905092915050565b60006020820190506143166000830184613d6e565b92915050565b600060c0820190506143316000830189613d6e565b818103602083015261434381886132ac565b9050818103604083015261435781876132ac565b90506143666060830186613d6e565b6143736080830185613d6e565b61438060a0830184613d6e565b979650505050505050565b60006040820190506143a06000830185613d6e565b6143ad6020830184613d6e565b9392505050565b6000604051905081810181811067ffffffffffffffff821117156143db576143da6147a6565b5b8060405250919050565b600067ffffffffffffffff821115614400576143ff6147a6565b5b601f19601f8301169050602081019050919050565b6000819050602082019050919050565b600081519050919050565b600081519050919050565b600081519050919050565b6000602082019050919050565b600082825260208201905092915050565b600082825260208201905092915050565b600082825260208201905092915050565b600082825260208201905092915050565b600081905092915050565b60006144ad82614621565b91506144b883614621565b9250827fffffffffffffffffffffffffffffffffffffffffffffffffffffffffffffffff038211156144ed576144ec614719565b5b828201905092915050565b600061450382614621565b915061450e83614621565b92508261451e5761451d614748565b5b828204905092915050565b600061453482614621565b915061453f83614621565b9250817fffffffffffffffffffffffffffffffffffffffffffffffffffffffffffffffff048311821515161561457857614577614719565b5b828202905092915050565b600061458e82614621565b915061459983614621565b9250828210156145ac576145ab614719565b5b828203905092915050565b60006145c282614601565b9050919050565b60008115159050919050565b60007fffffffff0000000000000000000000000000000000000000000000000000000082169050919050565b600073ffffffffffffffffffffffffffffffffffffffff82169050919050565b6000819050919050565b82818337600083830152505050565b60005b8381101561465857808201518184015260208101905061463d565b83811115614667576000848401525b50505050565b6000600282049050600182168061468557607f821691505b6020821081141561469957614698614777565b5b50919050565b60006146aa82614621565b91507fffffffffffffffffffffffffffffffffffffffffffffffffffffffffffffffff8214156146dd576146dc614719565b5b600182019050919050565b60006146f382614621565b91506146fe83614621565b92508261470e5761470d614748565b5b828206905092915050565b7f4e487b7100000000000000000000000000000000000000000000000000000000600052601160045260246000fd5b7f4e487b7100000000000000000000000000000000000000000000000000000000600052601260045260246000fd5b7f4e487b7100000000000000000000000000000000000000000000000000000000600052602260045260246000fd5b7f4e487b7100000000000000000000000000000000000000000000000000000000600052604160045260246000fd5b6000601f19601f8301169050919050565b6147ef816145b7565b81146147fa57600080fd5b50565b614806816145c9565b811461481157600080fd5b50565b61481d816145d5565b811461482857600080fd5b50565b61483481614621565b811461483f57600080fd5b5056fe506c617965722061747461636b656420626f73732e204e657720626f73732068703a202573536f6d656f6e65207265766976656420426f73732e204e657720626f73732068703a2025734142434445464748494a4b4c4d4e4f505152535455565758595a6162636465666768696a6b6c6d6e6f707172737475767778797a303132333435363738392b2f426f73732061747461636b656420706c617965722e204e657720706c617965722068703a2025730a4d696e746564204e465420772f20746f6b656e496420257320616e6420636861726163746572496e6465782025730a506c6179657220772f206368617261637465722025732061626f757420746f2061747461636b2e2048617320257320485020616e64202573204144a26469706673582212208f865013ffcd8cef14f9290f0583132ea3f5558718a03a6383d72c51a0785f9c64736f6c63430008000033446f6e6520696e697469616c697a696e6720257320772f2048502025732c20696d67202573446f6e6520696e697469616c697a696e6720626f737320257320772f2048502025732c20696d67202573",
  "linkReferences": {},
  "deployedLinkReferences": {}
}